:100000000C942A000C9434000C9434000C943400AA
:100010000C9434000C9434000C9434000C94340090
:100020000C9434000C9434000C9434000C94340080
:100030000C9434000C9434000C9434000C94340070
:100040000C9434000C9434000C9434000C94340060
:100050000C94340011241FBECFE5D8E0DEBFCDBF25
:100060000E9436000C945D000C940000DF93CF9347
:1000700000D0CDB7DEB7E7E3F0E080E88083E6E3C9
:10008000F0E08081882F90E0817090709A8389835E
:1000900089819A818130910541F4A8E3B0E0E8E3D9
:1000A000F0E0808180688C93EACFA8E3B0E0E8E3D9
:0E00B000F0E080818F778C93E2CFF894FFCF41
:00000001FF
